{
  "address": "0xc6e7DF5E7b4f2A278906862b61205850344D4e7d",
  "abi": [
    {
      "inputs": [
        {
          "internalType": "address",
          "name": "recipient",
          "type": "address"
        }
      ],
      "stateMutability": "nonpayable",
      "type": "constructor"
    },
    {
      "inputs": [
        {
          "internalType": "address",
          "name": "spender",
          "type": "address"
        },
        {
          "internalType": "uint256",
          "name": "allowance",
          "type": "uint256"
        },
        {
          "internalType": "uint256",
          "name": "needed",
          "type": "uint256"
        }
      ],
      "name": "ERC20InsufficientAllowance",
      "type": "error"
    },
    {
      "inputs": [
        {
          "internalType": "address",
          "name": "sender",
          "type": "address"
        },
        {
          "internalType": "uint256",
          "name": "balance",
          "type": "uint256"
        },
        {
          "internalType": "uint256",
          "name": "needed",
          "type": "uint256"
        }
      ],
      "name": "ERC20InsufficientBalance",
      "type": "error"
    },
    {
      "inputs": [
        {
          "internalType": "address",
          "name": "approver",
          "type": "address"
        }
      ],
      "name": "ERC20InvalidApprover",
      "type": "error"
    },
    {
      "inputs": [
        {
          "internalType": "address",
          "name": "receiver",
          "type": "address"
        }
      ],
      "name": "ERC20InvalidReceiver",
      "type": "error"
    },
    {
      "inputs": [
        {
          "internalType": "address",
          "name": "sender",
          "type": "address"
        }
      ],
      "name": "ERC20InvalidSender",
      "type": "error"
    },
    {
      "inputs": [
        {
          "internalType": "address",
          "name": "spender",
          "type": "address"
        }
      ],
      "name": "ERC20InvalidSpender",
      "type": "error"
    },
    {
      "inputs": [
        {
          "internalType": "address",
          "name": "owner",
          "type": "address"
        }
      ],
      "name": "OwnableInvalidOwner",
      "type": "error"
    },
    {
      "inputs": [
        {
          "internalType": "address",
          "name": "account",
          "type": "address"
        }
      ],
      "name": "OwnableUnauthorizedAccount",
      "type": "error"
    },
    {
      "anonymous": false,
      "inputs": [
        {
          "indexed": true,
          "internalType": "address",
          "name": "owner",
          "type": "address"
        },
        {
          "indexed": true,
          "internalType": "address",
          "name": "spender",
          "type": "address"
        },
        {
          "indexed": false,
          "internalType": "uint256",
          "name": "value",
          "type": "uint256"
        }
      ],
      "name": "Approval",
      "type": "event"
    },
    {
      "anonymous": false,
      "inputs": [
        {
          "indexed": true,
          "internalType": "address",
          "name": "previousOwner",
          "type": "address"
        },
        {
          "indexed": true,
          "internalType": "address",
          "name": "newOwner",
          "type": "address"
        }
      ],
      "name": "OwnershipTransferred",
      "type": "event"
    },
    {
      "anonymous": false,
      "inputs": [
        {
          "indexed": true,
          "internalType": "address",
          "name": "from",
          "type": "address"
        },
        {
          "indexed": true,
          "internalType": "address",
          "name": "to",
          "type": "address"
        },
        {
          "indexed": false,
          "internalType": "uint256",
          "name": "value",
          "type": "uint256"
        }
      ],
      "name": "Transfer",
      "type": "event"
    },
    {
      "inputs": [],
      "name": "INITIAL_TRANSFER_AMOUNT",
      "outputs": [
        {
          "internalType": "uint256",
          "name": "",
          "type": "uint256"
        }
      ],
      "stateMutability": "view",
      "type": "function"
    },
    {
      "inputs": [
        {
          "internalType": "address",
          "name": "owner",
          "type": "address"
        },
        {
          "internalType": "address",
          "name": "spender",
          "type": "address"
        }
      ],
      "name": "allowance",
      "outputs": [
        {
          "internalType": "uint256",
          "name": "",
          "type": "uint256"
        }
      ],
      "stateMutability": "view",
      "type": "function"
    },
    {
      "inputs": [
        {
          "internalType": "address",
          "name": "spender",
          "type": "address"
        },
        {
          "internalType": "uint256",
          "name": "value",
          "type": "uint256"
        }
      ],
      "name": "approve",
      "outputs": [
        {
          "internalType": "bool",
          "name": "",
          "type": "bool"
        }
      ],
      "stateMutability": "nonpayable",
      "type": "function"
    },
    {
      "inputs": [
        {
          "internalType": "address",
          "name": "account",
          "type": "address"
        }
      ],
      "name": "balanceOf",
      "outputs": [
        {
          "internalType": "uint256",
          "name": "",
          "type": "uint256"
        }
      ],
      "stateMutability": "view",
      "type": "function"
    },
    {
      "inputs": [],
      "name": "decimals",
      "outputs": [
        {
          "internalType": "uint8",
          "name": "",
          "type": "uint8"
        }
      ],
      "stateMutability": "view",
      "type": "function"
    },
    {
      "inputs": [],
      "name": "initialRecipient",
      "outputs": [
        {
          "internalType": "address",
          "name": "",
          "type": "address"
        }
      ],
      "stateMutability": "view",
      "type": "function"
    },
    {
      "inputs": [
        {
          "internalType": "uint256",
          "name": "amount",
          "type": "uint256"
        }
      ],
      "name": "mint",
      "outputs": [],
      "stateMutability": "payable",
      "type": "function"
    },
    {
      "inputs": [],
      "name": "name",
      "outputs": [
        {
          "internalType": "string",
          "name": "",
          "type": "string"
        }
      ],
      "stateMutability": "view",
      "type": "function"
    },
    {
      "inputs": [],
      "name": "owner",
      "outputs": [
        {
          "internalType": "address",
          "name": "",
          "type": "address"
        }
      ],
      "stateMutability": "view",
      "type": "function"
    },
    {
      "inputs": [],
      "name": "renounceOwnership",
      "outputs": [],
      "stateMutability": "nonpayable",
      "type": "function"
    },
    {
      "inputs": [],
      "name": "symbol",
      "outputs": [
        {
          "internalType": "string",
          "name": "",
          "type": "string"
        }
      ],
      "stateMutability": "view",
      "type": "function"
    },
    {
      "inputs": [],
      "name": "totalSupply",
      "outputs": [
        {
          "internalType": "uint256",
          "name": "",
          "type": "uint256"
        }
      ],
      "stateMutability": "view",
      "type": "function"
    },
    {
      "inputs": [
        {
          "internalType": "address",
          "name": "to",
          "type": "address"
        },
        {
          "internalType": "uint256",
          "name": "value",
          "type": "uint256"
        }
      ],
      "name": "transfer",
      "outputs": [
        {
          "internalType": "bool",
          "name": "",
          "type": "bool"
        }
      ],
      "stateMutability": "nonpayable",
      "type": "function"
    },
    {
      "inputs": [
        {
          "internalType": "address",
          "name": "from",
          "type": "address"
        },
        {
          "internalType": "address",
          "name": "to",
          "type": "address"
        },
        {
          "internalType": "uint256",
          "name": "value",
          "type": "uint256"
        }
      ],
      "name": "transferFrom",
      "outputs": [
        {
          "internalType": "bool",
          "name": "",
          "type": "bool"
        }
      ],
      "stateMutability": "nonpayable",
      "type": "function"
    },
    {
      "inputs": [
        {
          "internalType": "address",
          "name": "newOwner",
          "type": "address"
        }
      ],
      "name": "transferOwnership",
      "outputs": [],
      "stateMutability": "nonpayable",
      "type": "function"
    },
    {
      "inputs": [],
      "name": "withdraw",
      "outputs": [],
      "stateMutability": "nonpayable",
      "type": "function"
    }
  ],
  "transactionHash": "0x992afbc28533b845315345ecf26f650712cae52c07e5795634a6102cf822ca18",
  "args": [
    "0xb975c82cafF9Fd068326b0Df0eD0eA0d839f24b4"
  ],
  "numDeployments": 1,
  "solcInputHash": "5027143de48d15690d1fcf623b58859d",
  "bytecode": "0x608060405234801561001057600080fd5b5060405161107638038061107683398101604081905261002f9161032a565b60408051808201825260088082526726bcaa37b5b2b72360c11b60208084018290528451808601909552918452908301523391600361006e83826103f8565b50600461007b82826103f8565b5050506001600160a01b0381166100ad57604051631e4fbdf760e01b8152600060048201526024015b60405180910390fd5b6100b681610110565b50600680546001600160a01b0319166001600160a01b0383161790556100e63369d3c21bcecceda1000000610162565b6001600160a01b0381161561010a5761010a338269152d02c7e14af680000061019c565b506104dd565b600580546001600160a01b038381166001600160a01b0319831681179093556040519116919082907f8be0079c531659141344cd1fd0a4f28419497f9722a3daafe3b4186f6b6457e090600090a35050565b6001600160a01b03821661018c5760405163ec442f0560e01b8152600060048201526024016100a4565b61019860008383610200565b5050565b6001600160a01b0383166101c657604051634b637e8f60e11b8152600060048201526024016100a4565b6001600160a01b0382166101f05760405163ec442f0560e01b8152600060048201526024016100a4565b6101fb838383610200565b505050565b6001600160a01b03831661022b57806002600082825461022091906104b6565b9091555061029d9050565b6001600160a01b0383166000908152602081905260409020548181101561027e5760405163391434e360e21b81526001600160a01b038516600482015260248101829052604481018390526064016100a4565b6001600160a01b03841660009081526020819052604090209082900390555b6001600160a01b0382166102b9576002805482900390556102d8565b6001600160a01b03821660009081526020819052604090208054820190555b816001600160a01b0316836001600160a01b03167fddf252ad1be2c89b69c2b068fc378daa952ba7f163c4a11628f55a4df523b3ef8360405161031d91815260200190565b60405180910390a3505050565b60006020828403121561033c57600080fd5b81516001600160a01b038116811461035357600080fd5b9392505050565b634e487b7160e01b600052604160045260246000fd5b600181811c9082168061038457607f821691505b6020821081036103a457634e487b7160e01b600052602260045260246000fd5b50919050565b601f8211156101fb57806000526020600020601f840160051c810160208510156103d15750805b601f840160051c820191505b818110156103f157600081556001016103dd565b5050505050565b81516001600160401b038111156104115761041161035a565b6104258161041f8454610370565b846103aa565b6020601f82116001811461045957600083156104415750848201515b600019600385901b1c1916600184901b1784556103f1565b600084815260208120601f198516915b828110156104895787850151825560209485019460019092019101610469565b50848210156104a75786840151600019600387901b60f8161c191681555b50505050600190811b01905550565b808201808211156104d757634e487b7160e01b600052601160045260246000fd5b92915050565b610b8a806104ec6000396000f3fe6080604052600436106100f35760003560e01c8063715018a61161008a578063a9059cbb11610059578063a9059cbb1461028a578063dd62ed3e146102aa578063f2fde38b146102f0578063f430e48b1461031057600080fd5b8063715018a61461022f5780638da5cb5b1461024457806395d89b4114610262578063a0712d681461027757600080fd5b806323b872dd116100c657806323b872dd146101a6578063313ce567146101c65780633ccfd60b146101e257806370a08231146101f957600080fd5b806303299652146100f857806306fdde0314610135578063095ea7b31461015757806318160ddd14610187575b600080fd5b34801561010457600080fd5b50600654610118906001600160a01b031681565b6040516001600160a01b0390911681526020015b60405180910390f35b34801561014157600080fd5b5061014a61032e565b60405161012c91906109c4565b34801561016357600080fd5b50610177610172366004610a2e565b6103c0565b604051901515815260200161012c565b34801561019357600080fd5b506002545b60405190815260200161012c565b3480156101b257600080fd5b506101776101c1366004610a58565b6103da565b3480156101d257600080fd5b506040516012815260200161012c565b3480156101ee57600080fd5b506101f76103fe565b005b34801561020557600080fd5b50610198610214366004610a95565b6001600160a01b031660009081526020819052604090205490565b34801561023b57600080fd5b506101f76104fa565b34801561025057600080fd5b506005546001600160a01b0316610118565b34801561026e57600080fd5b5061014a61050e565b6101f7610285366004610ab7565b61051d565b34801561029657600080fd5b506101776102a5366004610a2e565b6105d7565b3480156102b657600080fd5b506101986102c5366004610ad0565b6001600160a01b03918216600090815260016020908152604080832093909416825291909152205490565b3480156102fc57600080fd5b506101f761030b366004610a95565b6105e5565b34801561031c57600080fd5b5061019869152d02c7e14af680000081565b60606003805461033d90610b03565b80601f016020809104026020016040519081016040528092919081815260200182805461036990610b03565b80156103b65780601f1061038b576101008083540402835291602001916103b6565b820191906000526020600020905b81548152906001019060200180831161039957829003601f168201915b5050505050905090565b6000336103ce818585610620565b60019150505b92915050565b6000336103e8858285610632565b6103f38585856106b1565b506001949350505050565b610406610710565b478061044e5760405162461bcd60e51b81526020600482015260126024820152714e6f2045544820746f20776974686472617760701b60448201526064015b60405180910390fd5b60006104626005546001600160a01b031690565b6001600160a01b03168260405160006040518083038185875af1925050503d80600081146104ac576040519150601f19603f3d011682016040523d82523d6000602084013e6104b1565b606091505b50509050806104f65760405162461bcd60e51b815260206004820152601160248201527015da5d1a191c985dd85b0819985a5b1959607a1b6044820152606401610445565b5050565b610502610710565b61050c600061073d565b565b60606004805461033d90610b03565b34662386f26fc10000146105695760405162461bcd60e51b815260206004820152601360248201527236bab9ba103830bc90181718189032ba3432b960691b6044820152606401610445565b600081116105b95760405162461bcd60e51b815260206004820152601d60248201527f616d6f756e74206d7573742062652067726561746572207468616e20300000006044820152606401610445565b6105d4336105cf83670de0b6b3a7640000610b53565b61078f565b50565b6000336103ce8185856106b1565b6105ed610710565b6001600160a01b03811661061757604051631e4fbdf760e01b815260006004820152602401610445565b6105d48161073d565b61062d83838360016107c5565b505050565b6001600160a01b038381166000908152600160209081526040808320938616835292905220546000198110156106ab578181101561069c57604051637dc7a0d960e11b81526001600160a01b03841660048201526024810182905260448101839052606401610445565b6106ab848484840360006107c5565b50505050565b6001600160a01b0383166106db57604051634b637e8f60e11b815260006004820152602401610445565b6001600160a01b0382166107055760405163ec442f0560e01b815260006004820152602401610445565b61062d83838361089a565b6005546001600160a01b0316331461050c5760405163118cdaa760e01b8152336004820152602401610445565b600580546001600160a01b038381166001600160a01b0319831681179093556040519116919082907f8be0079c531659141344cd1fd0a4f28419497f9722a3daafe3b4186f6b6457e090600090a35050565b6001600160a01b0382166107b95760405163ec442f0560e01b815260006004820152602401610445565b6104f66000838361089a565b6001600160a01b0384166107ef5760405163e602df0560e01b815260006004820152602401610445565b6001600160a01b03831661081957604051634a1406b160e11b815260006004820152602401610445565b6001600160a01b03808516600090815260016020908152604080832093871683529290522082905580156106ab57826001600160a01b0316846001600160a01b03167f8c5be1e5ebec7d5bd14f71427d1e84f3dd0314c0f7b2291e5b200ac8c7c3b9258460405161088c91815260200190565b60405180910390a350505050565b6001600160a01b0383166108c55780600260008282546108ba9190610b6a565b909155506109379050565b6001600160a01b038316600090815260208190526040902054818110156109185760405163391434e360e21b81526001600160a01b03851660048201526024810182905260448101839052606401610445565b6001600160a01b03841660009081526020819052604090209082900390555b6001600160a01b03821661095357600280548290039055610972565b6001600160a01b03821660009081526020819052604090208054820190555b816001600160a01b0316836001600160a01b03167fddf252ad1be2c89b69c2b068fc378daa952ba7f163c4a11628f55a4df523b3ef836040516109b791815260200190565b60405180910390a3505050565b602081526000825180602084015260005b818110156109f257602081860181015160408684010152016109d5565b506000604082850101526040601f19601f83011684010191505092915050565b80356001600160a01b0381168114610a2957600080fd5b919050565b60008060408385031215610a4157600080fd5b610a4a83610a12565b946020939093013593505050565b600080600060608486031215610a6d57600080fd5b610a7684610a12565b9250610a8460208501610a12565b929592945050506040919091013590565b600060208284031215610aa757600080fd5b610ab082610a12565b9392505050565b600060208284031215610ac957600080fd5b5035919050565b60008060408385031215610ae357600080fd5b610aec83610a12565b9150610afa60208401610a12565b90509250929050565b600181811c90821680610b1757607f821691505b602082108103610b3757634e487b7160e01b600052602260045260246000fd5b50919050565b634e487b7160e01b600052601160045260246000fd5b80820281158282048414176103d4576103d4610b3d565b808201808211156103d4576103d4610b3d56fea164736f6c634300081c000a",
  "devdoc": {
    "errors": {
      "ERC20InsufficientAllowance(address,uint256,uint256)": [
        {
          "details": "Indicates a failure with the `spender`s `allowance`. Used in transfers.",
          "params": {
            "allowance": "Amount of tokens a `spender` is allowed to operate with.",
            "needed": "Minimum amount required to perform a transfer.",
            "spender": "Address that may be allowed to operate on tokens without being their owner."
          }
        }
      ],
      "ERC20InsufficientBalance(address,uint256,uint256)": [
        {
          "details": "Indicates an error related to the current `balance` of a `sender`. Used in transfers.",
          "params": {
            "balance": "Current balance for the interacting account.",
            "needed": "Minimum amount required to perform a transfer.",
            "sender": "Address whose tokens are being transferred."
          }
        }
      ],
      "ERC20InvalidApprover(address)": [
        {
          "details": "Indicates a failure with the `approver` of a token to be approved. Used in approvals.",
          "params": {
            "approver": "Address initiating an approval operation."
          }
        }
      ],
      "ERC20InvalidReceiver(address)": [
        {
          "details": "Indicates a failure with the token `receiver`. Used in transfers.",
          "params": {
            "receiver": "Address to which tokens are being transferred."
          }
        }
      ],
      "ERC20InvalidSender(address)": [
        {
          "details": "Indicates a failure with the token `sender`. Used in transfers.",
          "params": {
            "sender": "Address whose tokens are being transferred."
          }
        }
      ],
      "ERC20InvalidSpender(address)": [
        {
          "details": "Indicates a failure with the `spender` to be approved. Used in approvals.",
          "params": {
            "spender": "Address that may be allowed to operate on tokens without being their owner."
          }
        }
      ],
      "OwnableInvalidOwner(address)": [
        {
          "details": "The owner is not a valid owner account. (eg. `address(0)`)"
        }
      ],
      "OwnableUnauthorizedAccount(address)": [
        {
          "details": "The caller account is not authorized to perform an operation."
        }
      ]
    },
    "events": {
      "Approval(address,address,uint256)": {
        "details": "Emitted when the allowance of a `spender` for an `owner` is set by a call to {approve}. `value` is the new allowance."
      },
      "Transfer(address,address,uint256)": {
        "details": "Emitted when `value` tokens are moved from one account (`from`) to another (`to`). Note that `value` may be zero."
      }
    },
    "kind": "dev",
    "methods": {
      "allowance(address,address)": {
        "details": "Returns the remaining number of tokens that `spender` will be allowed to spend on behalf of `owner` through {transferFrom}. This is zero by default. This value changes when {approve} or {transferFrom} are called."
      },
      "approve(address,uint256)": {
        "details": "See {IERC20-approve}. NOTE: If `value` is the maximum `uint256`, the allowance is not updated on `transferFrom`. This is semantically equivalent to an infinite approval. Requirements: - `spender` cannot be the zero address."
      },
      "balanceOf(address)": {
        "details": "Returns the value of tokens owned by `account`."
      },
      "decimals()": {
        "details": "Returns the number of decimals used to get its user representation. For example, if `decimals` equals `2`, a balance of `505` tokens should be displayed to a user as `5.05` (`505 / 10 ** 2`). Tokens usually opt for a value of 18, imitating the relationship between Ether and Wei. This is the default value returned by this function, unless it's overridden. NOTE: This information is only used for _display_ purposes: it in no way affects any of the arithmetic of the contract, including {IERC20-balanceOf} and {IERC20-transfer}."
      },
      "name()": {
        "details": "Returns the name of the token."
      },
      "owner()": {
        "details": "Returns the address of the current owner."
      },
      "renounceOwnership()": {
        "details": "Leaves the contract without owner. It will not be possible to call `onlyOwner` functions. Can only be called by the current owner. NOTE: Renouncing ownership will leave the contract without an owner, thereby disabling any functionality that is only available to the owner."
      },
      "symbol()": {
        "details": "Returns the symbol of the token, usually a shorter version of the name."
      },
      "totalSupply()": {
        "details": "Returns the value of tokens in existence."
      },
      "transfer(address,uint256)": {
        "details": "See {IERC20-transfer}. Requirements: - `to` cannot be the zero address. - the caller must have a balance of at least `value`."
      },
      "transferFrom(address,address,uint256)": {
        "details": "See {IERC20-transferFrom}. Skips emitting an {Approval} event indicating an allowance update. This is not required by the ERC. See {xref-ERC20-_approve-address-address-uint256-bool-}[_approve]. NOTE: Does not update the allowance if the current allowance is the maximum `uint256`. Requirements: - `from` and `to` cannot be the zero address. - `from` must have a balance of at least `value`. - the caller must have allowance for ``from``'s tokens of at least `value`."
      },
      "transferOwnership(address)": {
        "details": "Transfers ownership of the contract to a new account (`newOwner`). Can only be called by the current owner."
      }
    },
    "version": 1
  },
  "userdoc": {
    "kind": "user",
    "methods": {},
    "version": 1
  },
  "storageLayout": {
    "storage": [
      {
        "astId": 1876,
        "contract": "contracts/MyTokenF.sol:MyTokenF",
        "label": "_balances",
        "offset": 0,
        "slot": "0",
        "type": "t_mapping(t_address,t_uint256)"
      },
      {
        "astId": 1882,
        "contract": "contracts/MyTokenF.sol:MyTokenF",
        "label": "_allowances",
        "offset": 0,
        "slot": "1",
        "type": "t_mapping(t_address,t_mapping(t_address,t_uint256))"
      },
      {
        "astId": 1884,
        "contract": "contracts/MyTokenF.sol:MyTokenF",
        "label": "_totalSupply",
        "offset": 0,
        "slot": "2",
        "type": "t_uint256"
      },
      {
        "astId": 1886,
        "contract": "contracts/MyTokenF.sol:MyTokenF",
        "label": "_name",
        "offset": 0,
        "slot": "3",
        "type": "t_string_storage"
      },
      {
        "astId": 1888,
        "contract": "contracts/MyTokenF.sol:MyTokenF",
        "label": "_symbol",
        "offset": 0,
        "slot": "4",
        "type": "t_string_storage"
      },
      {
        "astId": 1152,
        "contract": "contracts/MyTokenF.sol:MyTokenF",
        "label": "_owner",
        "offset": 0,
        "slot": "5",
        "type": "t_address"
      },
      {
        "astId": 12865,
        "contract": "contracts/MyTokenF.sol:MyTokenF",
        "label": "initialRecipient",
        "offset": 0,
        "slot": "6",
        "type": "t_address"
      }
    ],
    "types": {
      "t_address": {
        "encoding": "inplace",
        "label": "address",
        "numberOfBytes": "20"
      },
      "t_mapping(t_address,t_mapping(t_address,t_uint256))": {
        "encoding": "mapping",
        "key": "t_address",
        "label": "mapping(address => mapping(address => uint256))",
        "numberOfBytes": "32",
        "value": "t_mapping(t_address,t_uint256)"
      },
      "t_mapping(t_address,t_uint256)": {
        "encoding": "mapping",
        "key": "t_address",
        "label": "mapping(address => uint256)",
        "numberOfBytes": "32",
        "value": "t_uint256"
      },
      "t_string_storage": {
        "encoding": "bytes",
        "label": "string",
        "numberOfBytes": "32"
      },
      "t_uint256": {
        "encoding": "inplace",
        "label": "uint256",
        "numberOfBytes": "32"
      }
    }
  }
}