{
  "address": "0xe7f1725E7734CE288F8367e1Bb143E90bb3F0512",
  "abi": [
    {
      "inputs": [
        {
          "internalType": "address",
          "name": "target",
          "type": "address"
        }
      ],
      "name": "AddressEmptyCode",
      "type": "error"
    },
    {
      "inputs": [
        {
          "internalType": "address",
          "name": "implementation",
          "type": "address"
        }
      ],
      "name": "ERC1967InvalidImplementation",
      "type": "error"
    },
    {
      "inputs": [],
      "name": "ERC1967NonPayable",
      "type": "error"
    },
    {
      "inputs": [],
      "name": "FailedCall",
      "type": "error"
    },
    {
      "inputs": [],
      "name": "InvalidInitialization",
      "type": "error"
    },
    {
      "inputs": [],
      "name": "NotInitializing",
      "type": "error"
    },
    {
      "inputs": [
        {
          "internalType": "address",
          "name": "token",
          "type": "address"
        }
      ],
      "name": "SafeERC20FailedOperation",
      "type": "error"
    },
    {
      "inputs": [],
      "name": "UUPSUnauthorizedCallContext",
      "type": "error"
    },
    {
      "inputs": [
        {
          "internalType": "bytes32",
          "name": "slot",
          "type": "bytes32"
        }
      ],
      "name": "UUPSUnsupportedProxiableUUID",
      "type": "error"
    },
    {
      "anonymous": false,
      "inputs": [
        {
          "indexed": false,
          "internalType": "uint64",
          "name": "version",
          "type": "uint64"
        }
      ],
      "name": "Initialized",
      "type": "event"
    },
    {
      "anonymous": false,
      "inputs": [
        {
          "indexed": false,
          "internalType": "int256",
          "name": "price",
          "type": "int256"
        }
      ],
      "name": "PriceUpdated",
      "type": "event"
    },
    {
      "anonymous": false,
      "inputs": [
        {
          "indexed": true,
          "internalType": "address",
          "name": "implementation",
          "type": "address"
        }
      ],
      "name": "Upgraded",
      "type": "event"
    },
    {
      "inputs": [],
      "name": "UPGRADE_INTERFACE_VERSION",
      "outputs": [
        {
          "internalType": "string",
          "name": "",
          "type": "string"
        }
      ],
      "stateMutability": "view",
      "type": "function"
    },
    {
      "inputs": [],
      "name": "admin",
      "outputs": [
        {
          "internalType": "address",
          "name": "",
          "type": "address"
        }
      ],
      "stateMutability": "view",
      "type": "function"
    },
    {
      "inputs": [
        {
          "internalType": "uint256",
          "name": "",
          "type": "uint256"
        }
      ],
      "name": "auctions",
      "outputs": [
        {
          "internalType": "address payable",
          "name": "seller",
          "type": "address"
        },
        {
          "internalType": "uint256",
          "name": "duration",
          "type": "uint256"
        },
        {
          "internalType": "uint256",
          "name": "startPrice",
          "type": "uint256"
        },
        {
          "internalType": "bool",
          "name": "ended",
          "type": "bool"
        },
        {
          "internalType": "address payable",
          "name": "highestBidder",
          "type": "address"
        },
        {
          "internalType": "uint256",
          "name": "highestBid",
          "type": "uint256"
        },
        {
          "internalType": "uint256",
          "name": "startTime",
          "type": "uint256"
        },
        {
          "internalType": "address",
          "name": "nftContract",
          "type": "address"
        },
        {
          "internalType": "uint256",
          "name": "tokenId",
          "type": "uint256"
        },
        {
          "internalType": "address",
          "name": "tokenAddress",
          "type": "address"
        }
      ],
      "stateMutability": "view",
      "type": "function"
    },
    {
      "inputs": [
        {
          "internalType": "uint256",
          "name": "duration",
          "type": "uint256"
        },
        {
          "internalType": "uint256",
          "name": "startPrice",
          "type": "uint256"
        },
        {
          "internalType": "address",
          "name": "_nftAddress",
          "type": "address"
        },
        {
          "internalType": "uint256",
          "name": "tonkenId",
          "type": "uint256"
        },
        {
          "internalType": "address",
          "name": "_tokenAddress",
          "type": "address"
        }
      ],
      "name": "createAuction",
      "outputs": [],
      "stateMutability": "nonpayable",
      "type": "function"
    },
    {
      "inputs": [
        {
          "internalType": "uint256",
          "name": "_auctionId",
          "type": "uint256"
        }
      ],
      "name": "endAuction",
      "outputs": [],
      "stateMutability": "nonpayable",
      "type": "function"
    },
    {
      "inputs": [],
      "name": "getLatestPrice",
      "outputs": [
        {
          "internalType": "int256",
          "name": "",
          "type": "int256"
        }
      ],
      "stateMutability": "nonpayable",
      "type": "function"
    },
    {
      "inputs": [
        {
          "internalType": "address",
          "name": "_admin",
          "type": "address"
        }
      ],
      "name": "initialize",
      "outputs": [],
      "stateMutability": "nonpayable",
      "type": "function"
    },
    {
      "inputs": [],
      "name": "nextAuctionId",
      "outputs": [
        {
          "internalType": "uint256",
          "name": "",
          "type": "uint256"
        }
      ],
      "stateMutability": "view",
      "type": "function"
    },
    {
      "inputs": [
        {
          "internalType": "uint256",
          "name": "_auctionId",
          "type": "uint256"
        },
        {
          "internalType": "uint256",
          "name": "amount",
          "type": "uint256"
        },
        {
          "internalType": "address",
          "name": "_tokenAddress",
          "type": "address"
        }
      ],
      "name": "placeBid",
      "outputs": [],
      "stateMutability": "payable",
      "type": "function"
    },
    {
      "inputs": [],
      "name": "proxiableUUID",
      "outputs": [
        {
          "internalType": "bytes32",
          "name": "",
          "type": "bytes32"
        }
      ],
      "stateMutability": "view",
      "type": "function"
    },
    {
      "inputs": [
        {
          "internalType": "address",
          "name": "_priceETHFeed",
          "type": "address"
        }
      ],
      "name": "setPriceEthFeed",
      "outputs": [],
      "stateMutability": "nonpayable",
      "type": "function"
    },
    {
      "inputs": [
        {
          "internalType": "address",
          "name": "newImplementation",
          "type": "address"
        },
        {
          "internalType": "bytes",
          "name": "data",
          "type": "bytes"
        }
      ],
      "name": "upgradeToAndCall",
      "outputs": [],
      "stateMutability": "payable",
      "type": "function"
    }
  ],
  "transactionHash": "0x2d47c01ab06db0651677b7f50cae5fefc15a43ffb17b7cbcae0e4ed9fe1069b8",
  "args": [],
  "numDeployments": 1,
  "solcInputHash": "5027143de48d15690d1fcf623b58859d",
  "bytecode": "0x60a060405230608052348015601357600080fd5b5060805161147961003d60003960008181610c5b01528181610c840152610e1a01526114796000f3fe6080604052600436106100a75760003560e01c8063ad6561ec11610064578063ad6561ec14610250578063b9a2de3a14610263578063c217d4d614610283578063c4d66de8146102a3578063f851a440146102c3578063fc528482146102fb57600080fd5b8063228190b2146100ac5780634f1ef286146100eb57806352d1902d146100fe578063571a26a0146101265780638e15f473146101fd578063ad3cb1cc14610212575b600080fd5b3480156100b857600080fd5b506100e96100c7366004611185565b600380546001600160a01b0319166001600160a01b0392909216919091179055565b005b6100e96100f93660046111b6565b610311565b34801561010a57600080fd5b50610113610330565b6040519081526020015b60405180910390f35b34801561013257600080fd5b506101a2610141366004611280565b6000602081905290815260409020805460018201546002830154600384015460048501546005860154600687015460078801546008909801546001600160a01b03978816989697959660ff861696610100909604861695928316929091168a565b604080516001600160a01b039b8c168152602081019a909a528901979097529415156060880152928716608087015260a086019190915260c0850152841660e08401526101008301529091166101208201526101400161011d565b34801561020957600080fd5b5061011361034d565b34801561021e57600080fd5b50610243604051806040016040528060058152602001640352e302e360dc1b81525081565b60405161011d91906112bd565b6100e961025e3660046112f0565b6104bd565b34801561026f57600080fd5b506100e961027e366004611280565b61077c565b34801561028f57600080fd5b506100e961029e366004611325565b610905565b3480156102af57600080fd5b506100e96102be366004611185565b610b27565b3480156102cf57600080fd5b506002546102e3906001600160a01b031681565b6040516001600160a01b03909116815260200161011d565b34801561030757600080fd5b5061011360015481565b610319610c50565b61032282610cf7565b61032c8282610d4d565b5050565b600061033a610e0f565b5060008051602061144d83398151915290565b6003546000906001600160a01b03166103a25760405162461bcd60e51b8152602060048201526012602482015271141c9a58d94819995959081b9bdd081cd95d60721b60448201526064015b60405180910390fd5b600080600360009054906101000a90046001600160a01b03166001600160a01b031663feaf968c6040518163ffffffff1660e01b815260040160a060405180830381865afa1580156103f8573d6000803e3d6000fd5b505050506040513d601f19601f8201168201806040525081019061041c919061138f565b9450505092505060008213801561043f575060008169ffffffffffffffffffff16115b6104845760405162461bcd60e51b8152602060048201526016602482015275496e76616c6964206f72207374616c6520707269636560501b6044820152606401610399565b6040518281527ffa6bd982fa4e58a45ea44e1fe84ab8e9de93c3310ec81db62565ac50139a6ca39060200160405180910390a150919050565b6000838152602081905260409020600381015460ff161580156104f25750806001015481600501546104ef91906113eb565b42105b6105325760405162461bcd60e51b8152602060048201526011602482015270105d58dd1a5bdb881a185cc8195b991959607a1b6044820152606401610399565b60006001600160a01b03831615610549578261055f565b73eeeeeeeeeeeeeeeeeeeeeeeeeeeeeeeeeeeeeeee5b60088301549091506001600160a01b038083169116146105b25760405162461bcd60e51b815260206004820152600e60248201526d0a8ded6cadc40dad2e6dac2e8c6d60931b6044820152606401610399565b600073eeeeeeeeeeeeeeeeeeeeeeeeeeeeeeeeeeeeeeed196001600160a01b03831601610632573490508260040154811180156105f3575082600201548110155b61062d5760405162461bcd60e51b815260206004820152600b60248201526a42696420746f6f206c6f7760a81b6044820152606401610399565b61069b565b6106476001600160a01b038316333088610e58565b849050826004015481118015610661575082600201548110155b61069b5760405162461bcd60e51b815260206004820152600b60248201526a42696420746f6f206c6f7760a81b6044820152606401610399565b600383015461010090046001600160a01b0316156107545760088301546001600160a01b031673eeeeeeeeeeeeeeeeeeeeeeeeeeeeeeeeeeeeeeed190161072657600383015460048401546040516101009092046001600160a01b0316916108fc82150291906000818181858888f19350505050158015610720573d6000803e3d6000fd5b50610754565b600383015460048401546008850154610754926001600160a01b039182169261010090910490911690610ec5565b600383018054610100600160a81b031916336101000217905560049092019190915550505050565b6000818152602081905260409020600381015460ff16156107df5760405162461bcd60e51b815260206004820152601960248201527f41756374696f6e2068617320616c726561647920656e646564000000000000006044820152606401610399565b42816001015482600501546107f491906113eb565b106108395760405162461bcd60e51b8152602060048201526015602482015274105d58dd1a5bdb881a185cc81b9bdd08195b991959605a1b6044820152606401610399565b600681015460038201546007830154604051632142170760e11b81523060048201526001600160a01b036101009093048316602482015260448101919091529116906342842e0e90606401600060405180830381600087803b15801561089e57600080fd5b505af11580156108b2573d6000803e3d6000fd5b5050825460048401546040516001600160a01b03909216935080156108fc029250906000818181858888f193505050501580156108f3573d6000803e3d6000fd5b50600301805460ff1916600117905550565b6002546001600160a01b0316331461095f5760405162461bcd60e51b815260206004820152601d60248201527f6f6e6c792061646d696e2063616e206372656174652041756374696f6e0000006044820152606401610399565b61ea6085116109b05760405162461bcd60e51b815260206004820152601f60248201527f4475726174696f6e206d7573742062652067726561746572207468616e2030006044820152606401610399565b60008411610a0b5760405162461bcd60e51b815260206004820152602260248201527f5374617274207072696365206d7573742062652067726561746572207468616e604482015261020360f41b6064820152608401610399565b604080516101408101825233815260208082018881528284018881526000606085018181526080860182815260a087018381524260c089019081526001600160a01b038d811660e08b01908152610100808c018f81528e84166101208e01908152600180548b529c8a90529d89209c518d546001600160a01b0319908116918616919091178e559a518d8d0155985160028d0155955160038c01805496516001600160a81b0319909716911515610100600160a81b03191691909117958316909602949094179094559051600489015551600588015551600687018054861691831691909117905591516007860155945160089094018054909216931692909217909155805491610b1b836113fe565b91905055505050505050565b6000610b31610ef6565b805490915060ff600160401b820416159067ffffffffffffffff16600081158015610b595750825b905060008267ffffffffffffffff166001148015610b765750303b155b905081158015610b84575080155b15610ba25760405163f92ee8a960e01b815260040160405180910390fd5b845467ffffffffffffffff191660011785558315610bcc57845460ff60401b1916600160401b1785555b6001600160a01b038616610be05733610be2565b855b600280546001600160a01b0319166001600160a01b03929092169190911790558315610c4857845460ff60401b19168555604051600181527fc7f505b2f371ae2175ee4913f4499e1f2633a7b5936321eed1cdaeb6115181d29060200160405180910390a15b505050505050565b306001600160a01b037f0000000000000000000000000000000000000000000000000000000000000000161480610cd757507f00000000000000000000000000000000000000000000000000000000000000006001600160a01b0316610ccb60008051602061144d833981519152546001600160a01b031690565b6001600160a01b031614155b15610cf55760405163703e46dd60e11b815260040160405180910390fd5b565b6002546001600160a01b03163314610d4a5760405162461bcd60e51b81526020600482015260166024820152756f6e6c792061646d696e2063616e207570677261646560501b6044820152606401610399565b50565b816001600160a01b03166352d1902d6040518163ffffffff1660e01b8152600401602060405180830381865afa925050508015610da7575060408051601f3d908101601f19168201909252610da491810190611417565b60015b610dcf57604051634c9c8ce360e01b81526001600160a01b0383166004820152602401610399565b60008051602061144d8339815191528114610e0057604051632a87526960e21b815260048101829052602401610399565b610e0a8383610f21565b505050565b306001600160a01b037f00000000000000000000000000000000000000000000000000000000000000001614610cf55760405163703e46dd60e11b815260040160405180910390fd5b6040516001600160a01b038481166024830152838116604483015260648201839052610ebf9186918216906323b872dd906084015b604051602081830303815290604052915060e01b6020820180516001600160e01b038381831617835250505050610f77565b50505050565b6040516001600160a01b03838116602483015260448201839052610e0a91859182169063a9059cbb90606401610e8d565b6000807ff0c57e16840df040f15088dc2f81fe391c3923bec73e23a9662efc9c229c6a005b92915050565b610f2a82610fe8565b6040516001600160a01b038316907fbc7cd75a20ee27fd9adebab32041f755214dbc6bffa90cc0225b39da2e5c2d3b90600090a2805115610f6f57610e0a828261104d565b61032c6110c3565b600080602060008451602086016000885af180610f9a576040513d6000823e3d81fd5b50506000513d91508115610fb2578060011415610fbf565b6001600160a01b0384163b155b15610ebf57604051635274afe760e01b81526001600160a01b0385166004820152602401610399565b806001600160a01b03163b60000361101e57604051634c9c8ce360e01b81526001600160a01b0382166004820152602401610399565b60008051602061144d83398151915280546001600160a01b0319166001600160a01b0392909216919091179055565b6060600080846001600160a01b03168460405161106a9190611430565b600060405180830381855af49150503d80600081146110a5576040519150601f19603f3d011682016040523d82523d6000602084013e6110aa565b606091505b50915091506110ba8583836110e2565b95945050505050565b3415610cf55760405163b398979f60e01b815260040160405180910390fd5b6060826110f7576110f282611141565b61113a565b815115801561110e57506001600160a01b0384163b155b1561113757604051639996b31560e01b81526001600160a01b0385166004820152602401610399565b50805b9392505050565b80511561115057805160208201fd5b60405163d6bda27560e01b815260040160405180910390fd5b80356001600160a01b038116811461118057600080fd5b919050565b60006020828403121561119757600080fd5b61113a82611169565b634e487b7160e01b600052604160045260246000fd5b600080604083850312156111c957600080fd5b6111d283611169565b9150602083013567ffffffffffffffff8111156111ee57600080fd5b8301601f810185136111ff57600080fd5b803567ffffffffffffffff811115611219576112196111a0565b604051601f8201601f19908116603f0116810167ffffffffffffffff81118282101715611248576112486111a0565b60405281815282820160200187101561126057600080fd5b816020840160208301376000602083830101528093505050509250929050565b60006020828403121561129257600080fd5b5035919050565b60005b838110156112b457818101518382015260200161129c565b50506000910152565b60208152600082518060208401526112dc816040850160208701611299565b601f01601f19169190910160400192915050565b60008060006060848603121561130557600080fd5b833592506020840135915061131c60408501611169565b90509250925092565b600080600080600060a0868803121561133d57600080fd5b853594506020860135935061135460408701611169565b92506060860135915061136960808701611169565b90509295509295909350565b805169ffffffffffffffffffff8116811461118057600080fd5b600080600080600060a086880312156113a757600080fd5b6113b086611375565b6020870151604088015160608901519297509095509350915061136960808701611375565b634e487b7160e01b600052601160045260246000fd5b80820180821115610f1b57610f1b6113d5565b600060018201611410576114106113d5565b5060010190565b60006020828403121561142957600080fd5b5051919050565b60008251611442818460208701611299565b919091019291505056fe360894a13ba1a3210667c828492db98dca3e2076cc3735a920a3ca505d382bbca164736f6c634300081c000a",
  "devdoc": {
    "errors": {
      "AddressEmptyCode(address)": [
        {
          "details": "There's no code at `target` (it is not a contract)."
        }
      ],
      "ERC1967InvalidImplementation(address)": [
        {
          "details": "The `implementation` of the proxy is invalid."
        }
      ],
      "ERC1967NonPayable()": [
        {
          "details": "An upgrade function sees `msg.value > 0` that may be lost."
        }
      ],
      "FailedCall()": [
        {
          "details": "A call to an address target failed. The target may have reverted."
        }
      ],
      "InvalidInitialization()": [
        {
          "details": "The contract is already initialized."
        }
      ],
      "NotInitializing()": [
        {
          "details": "The contract is not initializing."
        }
      ],
      "SafeERC20FailedOperation(address)": [
        {
          "details": "An operation with an ERC-20 token failed."
        }
      ],
      "UUPSUnauthorizedCallContext()": [
        {
          "details": "The call is from an unauthorized context."
        }
      ],
      "UUPSUnsupportedProxiableUUID(bytes32)": [
        {
          "details": "The storage `slot` is unsupported as a UUID."
        }
      ]
    },
    "events": {
      "Initialized(uint64)": {
        "details": "Triggered when the contract has been initialized or reinitialized."
      },
      "Upgraded(address)": {
        "details": "Emitted when the implementation is upgraded."
      }
    },
    "kind": "dev",
    "methods": {
      "proxiableUUID()": {
        "details": "Implementation of the ERC-1822 {proxiableUUID} function. This returns the storage slot used by the implementation. It is used to validate the implementation's compatibility when performing an upgrade. IMPORTANT: A proxy pointing at a proxiable contract should not be considered proxiable itself, because this risks bricking a proxy that upgrades to it, by delegating to itself until out of gas. Thus it is critical that this function revert if invoked through a proxy. This is guaranteed by the `notDelegated` modifier."
      },
      "upgradeToAndCall(address,bytes)": {
        "custom:oz-upgrades-unsafe-allow-reachable": "delegatecall",
        "details": "Upgrade the implementation of the proxy to `newImplementation`, and subsequently execute the function call encoded in `data`. Calls {_authorizeUpgrade}. Emits an {Upgraded} event."
      }
    },
    "version": 1
  },
  "userdoc": {
    "kind": "user",
    "methods": {},
    "version": 1
  },
  "storageLayout": {
    "storage": [
      {
        "astId": 13126,
        "contract": "contracts/NftAuction.sol:NftAuction",
        "label": "auctions",
        "offset": 0,
        "slot": "0",
        "type": "t_mapping(t_uint256,t_struct(Auction)13121_storage)"
      },
      {
        "astId": 13128,
        "contract": "contracts/NftAuction.sol:NftAuction",
        "label": "nextAuctionId",
        "offset": 0,
        "slot": "1",
        "type": "t_uint256"
      },
      {
        "astId": 13130,
        "contract": "contracts/NftAuction.sol:NftAuction",
        "label": "admin",
        "offset": 0,
        "slot": "2",
        "type": "t_address"
      },
      {
        "astId": 13133,
        "contract": "contracts/NftAuction.sol:NftAuction",
        "label": "priceFeed",
        "offset": 0,
        "slot": "3",
        "type": "t_contract(AggregatorV3Interface)14155"
      }
    ],
    "types": {
      "t_address": {
        "encoding": "inplace",
        "label": "address",
        "numberOfBytes": "20"
      },
      "t_address_payable": {
        "encoding": "inplace",
        "label": "address payable",
        "numberOfBytes": "20"
      },
      "t_bool": {
        "encoding": "inplace",
        "label": "bool",
        "numberOfBytes": "1"
      },
      "t_contract(AggregatorV3Interface)14155": {
        "encoding": "inplace",
        "label": "contract AggregatorV3Interface",
        "numberOfBytes": "20"
      },
      "t_mapping(t_uint256,t_struct(Auction)13121_storage)": {
        "encoding": "mapping",
        "key": "t_uint256",
        "label": "mapping(uint256 => struct NftAuction.Auction)",
        "numberOfBytes": "32",
        "value": "t_struct(Auction)13121_storage"
      },
      "t_struct(Auction)13121_storage": {
        "encoding": "inplace",
        "label": "struct NftAuction.Auction",
        "members": [
          {
            "astId": 13102,
            "contract": "contracts/NftAuction.sol:NftAuction",
            "label": "seller",
            "offset": 0,
            "slot": "0",
            "type": "t_address_payable"
          },
          {
            "astId": 13104,
            "contract": "contracts/NftAuction.sol:NftAuction",
            "label": "duration",
            "offset": 0,
            "slot": "1",
            "type": "t_uint256"
          },
          {
            "astId": 13106,
            "contract": "contracts/NftAuction.sol:NftAuction",
            "label": "startPrice",
            "offset": 0,
            "slot": "2",
            "type": "t_uint256"
          },
          {
            "astId": 13108,
            "contract": "contracts/NftAuction.sol:NftAuction",
            "label": "ended",
            "offset": 0,
            "slot": "3",
            "type": "t_bool"
          },
          {
            "astId": 13110,
            "contract": "contracts/NftAuction.sol:NftAuction",
            "label": "highestBidder",
            "offset": 1,
            "slot": "3",
            "type": "t_address_payable"
          },
          {
            "astId": 13112,
            "contract": "contracts/NftAuction.sol:NftAuction",
            "label": "highestBid",
            "offset": 0,
            "slot": "4",
            "type": "t_uint256"
          },
          {
            "astId": 13114,
            "contract": "contracts/NftAuction.sol:NftAuction",
            "label": "startTime",
            "offset": 0,
            "slot": "5",
            "type": "t_uint256"
          },
          {
            "astId": 13116,
            "contract": "contracts/NftAuction.sol:NftAuction",
            "label": "nftContract",
            "offset": 0,
            "slot": "6",
            "type": "t_address"
          },
          {
            "astId": 13118,
            "contract": "contracts/NftAuction.sol:NftAuction",
            "label": "tokenId",
            "offset": 0,
            "slot": "7",
            "type": "t_uint256"
          },
          {
            "astId": 13120,
            "contract": "contracts/NftAuction.sol:NftAuction",
            "label": "tokenAddress",
            "offset": 0,
            "slot": "8",
            "type": "t_address"
          }
        ],
        "numberOfBytes": "288"
      },
      "t_uint256": {
        "encoding": "inplace",
        "label": "uint256",
        "numberOfBytes": "32"
      }
    }
  }
}